{
  "contractName": "DriveToPayContract",
  "abi": [
    {
      "inputs": [
        {
          "internalType": "address",
          "name": "",
          "type": "address"
        }
      ],
      "name": "users",
      "outputs": [
        {
          "internalType": "bool",
          "name": "business",
          "type": "bool"
        },
        {
          "internalType": "bool",
          "name": "customer",
          "type": "bool"
        }
      ],
      "stateMutability": "view",
      "type": "function",
      "constant": true
    },
    {
      "inputs": [
        {
          "internalType": "bool",
          "name": "business",
          "type": "bool"
        },
        {
          "internalType": "bool",
          "name": "customer",
          "type": "bool"
        }
      ],
      "name": "RegisterUser",
      "outputs": [
        {
          "internalType": "string",
          "name": "Confirmation",
          "type": "string"
        }
      ],
      "stateMutability": "nonpayable",
      "type": "function"
    },
    {
      "inputs": [],
      "name": "UnRegister",
      "outputs": [],
      "stateMutability": "nonpayable",
      "type": "function"
    },
    {
      "inputs": [
        {
          "internalType": "address",
          "name": "BusinessAddress",
          "type": "address"
        },
        {
          "internalType": "string",
          "name": "NameOfService",
          "type": "string"
        },
        {
          "internalType": "uint256",
          "name": "amount",
          "type": "uint256"
        }
      ],
      "name": "payment",
      "outputs": [],
      "stateMutability": "payable",
      "type": "function",
      "payable": true
    },
    {
      "inputs": [
        {
          "internalType": "address",
          "name": "BusinessAddress",
          "type": "address"
        },
        {
          "internalType": "string",
          "name": "NameOfService",
          "type": "string"
        }
      ],
      "name": "findPrice",
      "outputs": [
        {
          "internalType": "uint256",
          "name": "",
          "type": "uint256"
        }
      ],
      "stateMutability": "view",
      "type": "function",
      "constant": true
    },
    {
      "inputs": [
        {
          "internalType": "uint256",
          "name": "amountRequested",
          "type": "uint256"
        }
      ],
      "name": "withdraw",
      "outputs": [],
      "stateMutability": "payable",
      "type": "function",
      "payable": true
    },
    {
      "inputs": [
        {
          "internalType": "string",
          "name": "NameOfB",
          "type": "string"
        },
        {
          "internalType": "string",
          "name": "NameOFservice",
          "type": "string"
        },
        {
          "internalType": "uint256",
          "name": "price",
          "type": "uint256"
        }
      ],
      "name": "createBusiness",
      "outputs": [],
      "stateMutability": "nonpayable",
      "type": "function"
    },
    {
      "inputs": [
        {
          "internalType": "string",
          "name": "NameOfService",
          "type": "string"
        },
        {
          "internalType": "uint256",
          "name": "price",
          "type": "uint256"
        }
      ],
      "name": "AddService",
      "outputs": [],
      "stateMutability": "nonpayable",
      "type": "function"
    },
    {
      "inputs": [
        {
          "internalType": "string",
          "name": "licensePlate",
          "type": "string"
        }
      ],
      "name": "createuserandPlate",
      "outputs": [],
      "stateMutability": "nonpayable",
      "type": "function"
    },
    {
      "inputs": [
        {
          "internalType": "string",
          "name": "licensePlate",
          "type": "string"
        }
      ],
      "name": "getuserAddress",
      "outputs": [
        {
          "internalType": "address",
          "name": "",
          "type": "address"
        }
      ],
      "stateMutability": "view",
      "type": "function",
      "constant": true
    },
    {
      "inputs": [],
      "name": "getBalance",
      "outputs": [
        {
          "internalType": "uint256",
          "name": "",
          "type": "uint256"
        }
      ],
      "stateMutability": "view",
      "type": "function",
      "constant": true
    },
    {
      "inputs": [
        {
          "internalType": "string",
          "name": "NameofB",
          "type": "string"
        }
      ],
      "name": "getAddress",
      "outputs": [
        {
          "internalType": "address",
          "name": "",
          "type": "address"
        }
      ],
      "stateMutability": "view",
      "type": "function",
      "constant": true
    }
  ],
  "bytecode": "0x608060405234801561001057600080fd5b50611d49806100206000396000f3fe6080604052600436106100a65760003560e01c80635e36889f116100645780635e36889f146101985780638306167e146101d5578063a87430ba14610212578063bf40fac114610250578063c5df52fd1461028d578063e5a80d7b146102a9576100a6565b80621ee379146100ab57806312065fe0146100c25780631db42e13146100ed5780632e1a7d4d146101165780632fab0d2214610132578063594b13a71461015b575b600080fd5b3480156100b757600080fd5b506100c06102d2565b005b3480156100ce57600080fd5b506100d76104e8565b6040516100e49190611135565b60405180910390f35b3480156100f957600080fd5b50610114600480360381019061010f91906112d6565b610531565b005b610130600480360381019061012b9190611361565b610721565b005b34801561013e57600080fd5b506101596004803603810190610154919061138e565b6108a7565b005b34801561016757600080fd5b50610182600480360381019061017d9190611422565b6109a3565b60405161018f91906114e1565b60405180910390f35b3480156101a457600080fd5b506101bf60048036038101906101ba9190611503565b610d95565b6040516101cc919061158d565b60405180910390f35b3480156101e157600080fd5b506101fc60048036038101906101f791906115d4565b610ddd565b6040516102099190611135565b60405180910390f35b34801561021e57600080fd5b5061023960048036038101906102349190611630565b610e45565b60405161024792919061166c565b60405180910390f35b34801561025c57600080fd5b5061027760048036038101906102729190611503565b610e83565b604051610284919061158d565b60405180910390f35b6102a760048036038101906102a29190611695565b610ecb565b005b3480156102b557600080fd5b506102d060048036038101906102cb9190611503565b6110bc565b005b60011515600360003373ffffffffffffffffffffffffffffffffffffffff1673ffffffffffffffffffffffffffffffffffffffff16815260200190815260200160002060000160009054906101000a900460ff1615151480610387575060011515600360003373ffffffffffffffffffffffffffffffffffffffff1673ffffffffffffffffffffffffffffffffffffffff16815260200190815260200160002060000160019054906101000a900460ff161515145b6103c6576040517f08c379a00000000000000000000000000000000000000000000000000000000081526004016103bd90611776565b60405180910390fd5b6000600360003373ffffffffffffffffffffffffffffffffffffffff1673ffffffffffffffffffffffffffffffffffffffff16815260200190815260200160002060000160006101000a81548160ff0219169083151502179055506000600360003373ffffffffffffffffffffffffffffffffffffffff1673ffffffffffffffffffffffffffffffffffffffff16815260200190815260200160002060000160016101000a81548160ff021916908315150217905550600360003373ffffffffffffffffffffffffffffffffffffffff1673ffffffffffffffffffffffffffffffffffffffff168152602001908152602001600020600080820160006101000a81549060ff02191690556000820160016101000a81549060ff02191690555050565b60008060003373ffffffffffffffffffffffffffffffffffffffff1673ffffffffffffffffffffffffffffffffffffffff16815260200190815260200160002060020154905090565b60011515600360003373ffffffffffffffffffffffffffffffffffffffff1673ffffffffffffffffffffffffffffffffffffffff16815260200190815260200160002060000160009054906101000a900460ff161515146105c7576040517f08c379a00000000000000000000000000000000000000000000000000000000081526004016105be90611808565b60405180910390fd5b826000803373ffffffffffffffffffffffffffffffffffffffff1673ffffffffffffffffffffffffffffffffffffffff16815260200190815260200160002060010190816106159190611a34565b50806000803373ffffffffffffffffffffffffffffffffffffffff1673ffffffffffffffffffffffffffffffffffffffff168152602001908152602001600020600001836040516106669190611b42565b90815260200160405180910390208190555060008060003373ffffffffffffffffffffffffffffffffffffffff1673ffffffffffffffffffffffffffffffffffffffff16815260200190815260200160002060020181905550336001846040516106d09190611b42565b908152602001604051809103902060006101000a81548173ffffffffffffffffffffffffffffffffffffffff021916908373ffffffffffffffffffffffffffffffffffffffff160217905550505050565b60011515600360003373ffffffffffffffffffffffffffffffffffffffff1673ffffffffffffffffffffffffffffffffffffffff16815260200190815260200160002060000160009054906101000a900460ff161515146107b7576040517f08c379a00000000000000000000000000000000000000000000000000000000081526004016107ae90611808565b60405180910390fd5b6000803373ffffffffffffffffffffffffffffffffffffffff1673ffffffffffffffffffffffffffffffffffffffff1681526020019081526020016000206002015481111561080557600080fd5b3373ffffffffffffffffffffffffffffffffffffffff166108fc829081150290604051600060405180830381858888f1935050505015801561084b573d6000803e3d6000fd5b50806000803373ffffffffffffffffffffffffffffffffffffffff1673ffffffffffffffffffffffffffffffffffffffff168152602001908152602001600020600201600082825461089d9190611b88565b9250508190555050565b60011515600360003373ffffffffffffffffffffffffffffffffffffffff1673ffffffffffffffffffffffffffffffffffffffff16815260200190815260200160002060000160009054906101000a900460ff1615151461093d576040517f08c379a000000000000000000000000000000000000000000000000000000000815260040161093490611808565b60405180910390fd5b806000803373ffffffffffffffffffffffffffffffffffffffff1673ffffffffffffffffffffffffffffffffffffffff1681526020019081526020016000206000018360405161098d9190611b42565b9081526020016040518091039020819055505050565b6060600115158315151480156109bd575060001515821515145b15610ae057604051806040016040528060011515815260200160001515815250600460008201518160000160006101000a81548160ff02191690831515021790555060208201518160000160016101000a81548160ff0219169083151502179055509050506004600360003373ffffffffffffffffffffffffffffffffffffffff1673ffffffffffffffffffffffffffffffffffffffff1681526020019081526020016000206000820160009054906101000a900460ff168160000160006101000a81548160ff0219169083151502179055506000820160019054906101000a900460ff168160000160016101000a81548160ff0219169083151502179055509050506040518060600160405280603d8152602001611cd7603d91399050610d8f565b60001515831515148015610af8575060011515821515145b15610c1b57604051806040016040528060001515815260200160011515815250600560008201518160000160006101000a81548160ff02191690831515021790555060208201518160000160016101000a81548160ff0219169083151502179055509050506005600360003373ffffffffffffffffffffffffffffffffffffffff1673ffffffffffffffffffffffffffffffffffffffff1681526020019081526020016000206000820160009054906101000a900460ff168160000160006101000a81548160ff0219169083151502179055506000820160019054906101000a900460ff168160000160016101000a81548160ff021916908315150217905550905050604051806060016040528060328152602001611c5d603291399050610d8f565b60001515831515148015610c33575060001515821515145b15610c75576040518060400160405280601681526020017f4f6f70732c20706c656173652074727920616761696e000000000000000000008152509050610d8f565b604051806040016040528060011515815260200160011515815250600660008201518160000160006101000a81548160ff02191690831515021790555060208201518160000160016101000a81548160ff0219169083151502179055509050506006600360003373ffffffffffffffffffffffffffffffffffffffff1673ffffffffffffffffffffffffffffffffffffffff1681526020019081526020016000206000820160009054906101000a900460ff168160000160006101000a81548160ff0219169083151502179055506000820160019054906101000a900460ff168160000160016101000a81548160ff021916908315150217905550905050604051806080016040528060488152602001611c8f6048913990505b92915050565b6000600282604051610da79190611b42565b908152602001604051809103902060009054906101000a900473ffffffffffffffffffffffffffffffffffffffff169050919050565b60008060008473ffffffffffffffffffffffffffffffffffffffff1673ffffffffffffffffffffffffffffffffffffffff16815260200190815260200160002060000182604051610e2e9190611b42565b908152602001604051809103902054905092915050565b60036020528060005260406000206000915090508060000160009054906101000a900460ff16908060000160019054906101000a900460ff16905082565b6000600182604051610e959190611b42565b908152602001604051809103902060009054906101000a900473ffffffffffffffffffffffffffffffffffffffff169050919050565b60001515600360003373ffffffffffffffffffffffffffffffffffffffff1673ffffffffffffffffffffffffffffffffffffffff16815260200190815260200160002060000160009054906101000a900460ff161515148015610f81575060011515600360003373ffffffffffffffffffffffffffffffffffffffff1673ffffffffffffffffffffffffffffffffffffffff16815260200190815260200160002060000160019054906101000a900460ff161515145b610fc0576040517f08c379a0000000000000000000000000000000000000000000000000000000008152600401610fb790611808565b60405180910390fd5b6000808473ffffffffffffffffffffffffffffffffffffffff1673ffffffffffffffffffffffffffffffffffffffff1681526020019081526020016000206000018260405161100f9190611b42565b908152602001604051809103902054811461105f576040517f08c379a000000000000000000000000000000000000000000000000000000000815260040161105690611c08565b60405180910390fd5b806000808573ffffffffffffffffffffffffffffffffffffffff1673ffffffffffffffffffffffffffffffffffffffff16815260200190815260200160002060020160008282546110b09190611c28565b92505081905550505050565b336002826040516110cd9190611b42565b908152602001604051809103902060006101000a81548173ffffffffffffffffffffffffffffffffffffffff021916908373ffffffffffffffffffffffffffffffffffffffff16021790555050565b6000819050919050565b61112f8161111c565b82525050565b600060208201905061114a6000830184611126565b92915050565b6000604051905090565b600080fd5b600080fd5b600080fd5b600080fd5b6000601f19601f8301169050919050565b7f4e487b7100000000000000000000000000000000000000000000000000000000600052604160045260246000fd5b6111b78261116e565b810181811067ffffffffffffffff821117156111d6576111d561117f565b5b80604052505050565b60006111e9611150565b90506111f582826111ae565b919050565b600067ffffffffffffffff8211156112155761121461117f565b5b61121e8261116e565b9050602081019050919050565b82818337600083830152505050565b600061124d611248846111fa565b6111df565b90508281526020810184848401111561126957611268611169565b5b61127484828561122b565b509392505050565b600082601f83011261129157611290611164565b5b81356112a184826020860161123a565b91505092915050565b6112b38161111c565b81146112be57600080fd5b50565b6000813590506112d0816112aa565b92915050565b6000806000606084860312156112ef576112ee61115a565b5b600084013567ffffffffffffffff81111561130d5761130c61115f565b5b6113198682870161127c565b935050602084013567ffffffffffffffff81111561133a5761133961115f565b5b6113468682870161127c565b9250506040611357868287016112c1565b9150509250925092565b6000602082840312156113775761137661115a565b5b6000611385848285016112c1565b91505092915050565b600080604083850312156113a5576113a461115a565b5b600083013567ffffffffffffffff8111156113c3576113c261115f565b5b6113cf8582860161127c565b92505060206113e0858286016112c1565b9150509250929050565b60008115159050919050565b6113ff816113ea565b811461140a57600080fd5b50565b60008135905061141c816113f6565b92915050565b600080604083850312156114395761143861115a565b5b60006114478582860161140d565b92505060206114588582860161140d565b9150509250929050565b600081519050919050565b600082825260208201905092915050565b60005b8381101561149c578082015181840152602081019050611481565b60008484015250505050565b60006114b382611462565b6114bd818561146d565b93506114cd81856020860161147e565b6114d68161116e565b840191505092915050565b600060208201905081810360008301526114fb81846114a8565b905092915050565b6000602082840312156115195761151861115a565b5b600082013567ffffffffffffffff8111156115375761153661115f565b5b6115438482850161127c565b91505092915050565b600073ffffffffffffffffffffffffffffffffffffffff82169050919050565b60006115778261154c565b9050919050565b6115878161156c565b82525050565b60006020820190506115a2600083018461157e565b92915050565b6115b18161156c565b81146115bc57600080fd5b50565b6000813590506115ce816115a8565b92915050565b600080604083850312156115eb576115ea61115a565b5b60006115f9858286016115bf565b925050602083013567ffffffffffffffff81111561161a5761161961115f565b5b6116268582860161127c565b9150509250929050565b6000602082840312156116465761164561115a565b5b6000611654848285016115bf565b91505092915050565b611666816113ea565b82525050565b6000604082019050611681600083018561165d565b61168e602083018461165d565b9392505050565b6000806000606084860312156116ae576116ad61115a565b5b60006116bc868287016115bf565b935050602084013567ffffffffffffffff8111156116dd576116dc61115f565b5b6116e98682870161127c565b92505060406116fa868287016112c1565b9150509250925092565b7f4f6e6c792075736572732063616e2063616c6c20746869732066756e6374696f60008201527f6e00000000000000000000000000000000000000000000000000000000000000602082015250565b600061176060218361146d565b915061176b82611704565b604082019050919050565b6000602082019050818103600083015261178f81611753565b9050919050565b7f596f7520617265206e6f7420617574686f72697a656420746f2063616c6c207460008201527f6869732066756e6374696f6e0000000000000000000000000000000000000000602082015250565b60006117f2602c8361146d565b91506117fd82611796565b604082019050919050565b60006020820190508181036000830152611821816117e5565b9050919050565b7f4e487b7100000000000000000000000000000000000000000000000000000000600052602260045260246000fd5b6000600282049050600182168061186f57607f821691505b60208210810361188257611881611828565b5b50919050565b60008190508160005260206000209050919050565b60006020601f8301049050919050565b600082821b905092915050565b6000600883026118ea7fffffffffffffffffffffffffffffffffffffffffffffffffffffffffffffffff826118ad565b6118f486836118ad565b95508019841693508086168417925050509392505050565b6000819050919050565b600061193161192c6119278461111c565b61190c565b61111c565b9050919050565b6000819050919050565b61194b83611916565b61195f61195782611938565b8484546118ba565b825550505050565b600090565b611974611967565b61197f818484611942565b505050565b5b818110156119a35761199860008261196c565b600181019050611985565b5050565b601f8211156119e8576119b981611888565b6119c28461189d565b810160208510156119d1578190505b6119e56119dd8561189d565b830182611984565b50505b505050565b600082821c905092915050565b6000611a0b600019846008026119ed565b1980831691505092915050565b6000611a2483836119fa565b9150826002028217905092915050565b611a3d82611462565b67ffffffffffffffff811115611a5657611a5561117f565b5b611a608254611857565b611a6b8282856119a7565b600060209050601f831160018114611a9e5760008415611a8c578287015190505b611a968582611a18565b865550611afe565b601f198416611aac86611888565b60005b82811015611ad457848901518255600182019150602085019450602081019050611aaf565b86831015611af15784890151611aed601f8916826119fa565b8355505b6001600288020188555050505b505050505050565b600081905092915050565b6000611b1c82611462565b611b268185611b06565b9350611b3681856020860161147e565b80840191505092915050565b6000611b4e8284611b11565b915081905092915050565b7f4e487b7100000000000000000000000000000000000000000000000000000000600052601160045260246000fd5b6000611b938261111c565b9150611b9e8361111c565b9250828203905081811115611bb657611bb5611b59565b5b92915050565b7f506c656173652073656e642074686520726967687420616d6f756e7400000000600082015250565b6000611bf2601c8361146d565b9150611bfd82611bbc565b602082019050919050565b60006020820190508181036000830152611c2181611be5565b9050919050565b6000611c338261111c565b9150611c3e8361111c565b9250828201905080821115611c5657611c55611b59565b5b9291505056fe436f6e67726174756c6174696f6e732c20796f7520617265206e6f7720726567697374657265642061732061205573657221436f6e67726174756c6174696f6e732c20796f7520617265206e6f7720726567697374657265642061732061205573657220616e64206120427573696e65737320656e7469747921436f6e67726174756c6174696f6e732c20796f7520617265206e6f772072656769737465726564206173206120427573696e65737320656e7469747921a26469706673582212207fae21dc36b1d610d103135e937dee233c54f7e494b9fc0397a7a17f4ecc3be664736f6c63430008110033",
  "immutableReferences": {},
  "source": "// SPDX-License-Identifier: MIT\npragma solidity ^0.8.7;\n\ncontract DriveToPayContract {\n    //this struct will help us specify if the user is a business(eg: McDonals) or customer, or in some cases both.\n    struct User {\n        bool business; //if the user is a business\n        bool customer; // if the user is a customer\n    }\n    //stores addresses and business struct\n    mapping(address => Business) businessesMap;\n\n    //maps businesses name to their address\n    mapping(string => address) nametoBusiness;\n\n    //maps user's license plate to their address\n    mapping(string => address) platetoUsers;\n\n    //Business struct containing the services\n    struct Business {\n        mapping(string => uint256) Services; //stores the service offered by businesses and their prices\n        string Name; //name of the business\n        uint256 Balance; //amount owed to the business/amount they have raised/earned\n    }\n    //this will map the address of the user's account to their info\n    mapping(address => User) public users;\n\n    User NewBusiness; //struct for new businesses\n    User NewUser; //struct for new users\n    User NewUserandBusiness; // struct for new users and businesses\n\n    //registering users\n    function RegisterUser(bool business, bool customer)\n        public\n        returns (string memory Confirmation)\n    {\n        //registering just as a business\n        if (business == true && customer == false) {\n            NewBusiness = User(true, false);\n            users[msg.sender] = NewBusiness;\n            return (\n                \"Congratulations, you are now registered as a Business entity!\"\n            );\n\n            //registering just as a customer\n        } else if (business == false && customer == true) {\n            NewUser = User(false, true);\n            users[msg.sender] = NewUser;\n            //createBuisness();\n            return (\"Congratulations, you are now registered as a User!\");\n        }\n        //registering as neither\n        else if (business == false && customer == false) {\n            return (\"Oops, please try again\");\n        }\n        //registering as both\n        else {\n            NewUserandBusiness = User(true, true);\n            users[msg.sender] = NewUserandBusiness;\n            return (\n                \"Congratulations, you are now registered as a User and a Business entity!\"\n            );\n        }\n    }\n\n    //Unregistering as a user and a business\n    function UnRegister() public OnlyUsers {\n        users[msg.sender].business = false;\n        users[msg.sender].customer = false;\n        delete users[msg.sender];\n    }\n\n    //user paying money for services\n    function payment(\n        address BusinessAddress,\n        string memory NameOfService,\n        uint256 amount\n    ) external payable OnlyCustomers {\n        //checks if the amount send is the right amount for the service requested\n        require(\n            amount == businessesMap[BusinessAddress].Services[NameOfService],\n            \"Please send the right amount\"\n        );\n\n        //adds the payment to the business's balance, which the business can withdraw whenever they want- until then the amount will be stored in the contract\n        businessesMap[BusinessAddress].Balance += amount;\n    }\n\n    //finding the price of the service requested\n    function findPrice(address BusinessAddress, string memory NameOfService)\n        public\n        view\n        returns (uint256)\n    {\n        //returns the price of the service\n        return businessesMap[BusinessAddress].Services[NameOfService];\n    }\n\n    //function only available to business to withdraw their funds\n    function withdraw(uint256 amountRequested) public payable OnlyEntity {\n        //check if the amount to be withdrawn is less than or equal to the balance that the business has\n        require(amountRequested <= businessesMap[msg.sender].Balance);\n\n        //send the amount to the business's address\n        payable(msg.sender).transfer(amountRequested);\n\n        //decrements the amount they can withdraw in the future\n        businessesMap[msg.sender].Balance -= amountRequested;\n    }\n\n    //specifying the business\n    function createBusiness(\n        string memory NameOfB,\n        string memory NameOFservice,\n        uint256 price\n    ) public OnlyEntity {\n        //creates business's name\n        businessesMap[msg.sender].Name = NameOfB;\n\n        //creates the business's services\n        businessesMap[msg.sender].Services[NameOFservice] = price;\n\n        //sets their balance to 0 starting out\n        businessesMap[msg.sender].Balance = 0;\n\n        nametoBusiness[NameOfB] = msg.sender;\n    }\n\n    //Adding services to the business catalog\n    function AddService(string memory NameOfService, uint256 price)\n        public\n        OnlyEntity\n    {\n        businessesMap[msg.sender].Services[NameOfService] = price;\n    }\n\n    //user adding their license plate\n    function createuserandPlate(string memory licensePlate) public {\n        platetoUsers[licensePlate] = msg.sender;\n    }\n\n    //returning user's address based on what their license plate is\n    function getuserAddress(string memory licensePlate)\n        public\n        view\n        returns (address)\n    {\n        return platetoUsers[licensePlate];\n    }\n\n    //getting balance of the business\n    function getBalance() public view returns (uint256) {\n        return businessesMap[msg.sender].Balance;\n    }\n\n    //getting address of the business\n    function getAddress(string memory NameofB) public view returns (address) {\n        return nametoBusiness[NameofB];\n    }\n\n    //Modifiers\n\n    //modifier that checks that the user is both a business and customer\n    modifier OnlyUsers() {\n        require(\n            users[msg.sender].business == true ||\n                users[msg.sender].customer == true,\n            \"Only users can call this function\"\n        );\n        _;\n    }\n\n    //modifier that checks that the user is business\n    modifier OnlyEntity() {\n        require(\n            users[msg.sender].business == true,\n            \"You are not authorized to call this function\"\n        );\n        _;\n    }\n\n    //modifier that checks that the user is a customer\n    modifier OnlyCustomers() {\n        require(\n            users[msg.sender].business == false &&\n                users[msg.sender].customer == true,\n            \"You are not authorized to call this function\"\n        );\n        _;\n    }\n}\n",
  "sourcePath": "/Users/aryanshsharma/Desktop/Blockchain class/DriveToPayProject/426Project/DrivetoPay-contracts/contracts/DriveToPayContract.sol",
  "compiler": {
    "name": "solc",
    "version": "0.8.17+commit.8df45f5f.Emscripten.clang"
  },
  "schemaVersion": "3.4.10",
  "updatedAt": "2022-11-15T00:30:11.122Z",
  "networkType": "ethereum",
  "devdoc": {
    "kind": "dev",
    "methods": {},
    "version": 1
  },
  "userdoc": {
    "kind": "user",
    "methods": {},
    "version": 1
  }
}