{
  "contractName": "DriveToPayContract",
  "abi": [
    {
      "inputs": [
        {
          "internalType": "address",
          "name": "",
          "type": "address"
        }
      ],
      "name": "users",
      "outputs": [
        {
          "internalType": "bool",
          "name": "business",
          "type": "bool"
        },
        {
          "internalType": "bool",
          "name": "customer",
          "type": "bool"
        }
      ],
      "stateMutability": "view",
      "type": "function",
      "constant": true
    },
    {
      "inputs": [
        {
          "internalType": "bool",
          "name": "business",
          "type": "bool"
        },
        {
          "internalType": "bool",
          "name": "customer",
          "type": "bool"
        }
      ],
      "name": "RegisterUser",
      "outputs": [
        {
          "internalType": "string",
          "name": "Confirmation",
          "type": "string"
        }
      ],
      "stateMutability": "nonpayable",
      "type": "function"
    },
    {
      "inputs": [],
      "name": "UnRegister",
      "outputs": [],
      "stateMutability": "nonpayable",
      "type": "function"
    },
    {
      "inputs": [
        {
          "internalType": "address",
          "name": "BusinessAddress",
          "type": "address"
        },
        {
          "internalType": "string",
          "name": "NameOfService",
          "type": "string"
        }
      ],
      "name": "payment",
      "outputs": [],
      "stateMutability": "payable",
      "type": "function",
      "payable": true
    },
    {
      "inputs": [
        {
          "internalType": "address",
          "name": "BusinessAddress",
          "type": "address"
        },
        {
          "internalType": "string",
          "name": "NameOfService",
          "type": "string"
        }
      ],
      "name": "findPrice",
      "outputs": [
        {
          "internalType": "uint256",
          "name": "",
          "type": "uint256"
        }
      ],
      "stateMutability": "view",
      "type": "function",
      "constant": true
    },
    {
      "inputs": [
        {
          "internalType": "uint256",
          "name": "amountRequested",
          "type": "uint256"
        }
      ],
      "name": "withdraw",
      "outputs": [],
      "stateMutability": "payable",
      "type": "function",
      "payable": true
    },
    {
      "inputs": [
        {
          "internalType": "string",
          "name": "NameOfB",
          "type": "string"
        },
        {
          "internalType": "string",
          "name": "NameOFservice",
          "type": "string"
        },
        {
          "internalType": "uint256",
          "name": "price",
          "type": "uint256"
        }
      ],
      "name": "createBusiness",
      "outputs": [],
      "stateMutability": "nonpayable",
      "type": "function"
    },
    {
      "inputs": [
        {
          "internalType": "string",
          "name": "NameOfService",
          "type": "string"
        },
        {
          "internalType": "uint256",
          "name": "price",
          "type": "uint256"
        }
      ],
      "name": "AddService",
      "outputs": [],
      "stateMutability": "nonpayable",
      "type": "function"
    }
  ],
  "bytecode": "0x608060405234801561001057600080fd5b506119d6806100206000396000f3fe60806040526004361061007a5760003560e01c8063594b13a71161004e578063594b13a7146101045780638306167e14610141578063a87430ba1461017e578063daffc271146101bc5761007a565b80621ee3791461007f5780631db42e13146100965780632e1a7d4d146100bf5780632fab0d22146100db575b600080fd5b34801561008b57600080fd5b506100946101d8565b005b3480156100a257600080fd5b506100bd60048036038101906100b8919061101b565b6103ee565b005b6100d960048036038101906100d491906110a6565b610581565b005b3480156100e757600080fd5b5061010260048036038101906100fd91906110d3565b610707565b005b34801561011057600080fd5b5061012b60048036038101906101269190611167565b610803565b6040516101389190611226565b60405180910390f35b34801561014d57600080fd5b50610168600480360381019061016391906112a6565b610bf5565b6040516101759190611311565b60405180910390f35b34801561018a57600080fd5b506101a560048036038101906101a0919061132c565b610c5d565b6040516101b3929190611368565b60405180910390f35b6101d660048036038101906101d191906112a6565b610c9b565b005b60011515600160003373ffffffffffffffffffffffffffffffffffffffff1673ffffffffffffffffffffffffffffffffffffffff16815260200190815260200160002060000160009054906101000a900460ff161515148061028d575060011515600160003373ffffffffffffffffffffffffffffffffffffffff1673ffffffffffffffffffffffffffffffffffffffff16815260200190815260200160002060000160019054906101000a900460ff161515145b6102cc576040517f08c379a00000000000000000000000000000000000000000000000000000000081526004016102c390611403565b60405180910390fd5b6000600160003373ffffffffffffffffffffffffffffffffffffffff1673ffffffffffffffffffffffffffffffffffffffff16815260200190815260200160002060000160006101000a81548160ff0219169083151502179055506000600160003373ffffffffffffffffffffffffffffffffffffffff1673ffffffffffffffffffffffffffffffffffffffff16815260200190815260200160002060000160016101000a81548160ff021916908315150217905550600160003373ffffffffffffffffffffffffffffffffffffffff1673ffffffffffffffffffffffffffffffffffffffff168152602001908152602001600020600080820160006101000a81549060ff02191690556000820160016101000a81549060ff02191690555050565b60011515600160003373ffffffffffffffffffffffffffffffffffffffff1673ffffffffffffffffffffffffffffffffffffffff16815260200190815260200160002060000160009054906101000a900460ff16151514610484576040517f08c379a000000000000000000000000000000000000000000000000000000000815260040161047b90611495565b60405180910390fd5b826000803373ffffffffffffffffffffffffffffffffffffffff1673ffffffffffffffffffffffffffffffffffffffff16815260200190815260200160002060010190816104d291906116c1565b50806000803373ffffffffffffffffffffffffffffffffffffffff1673ffffffffffffffffffffffffffffffffffffffff1681526020019081526020016000206000018360405161052391906117cf565b90815260200160405180910390208190555060008060003373ffffffffffffffffffffffffffffffffffffffff1673ffffffffffffffffffffffffffffffffffffffff16815260200190815260200160002060020181905550505050565b60011515600160003373ffffffffffffffffffffffffffffffffffffffff1673ffffffffffffffffffffffffffffffffffffffff16815260200190815260200160002060000160009054906101000a900460ff16151514610617576040517f08c379a000000000000000000000000000000000000000000000000000000000815260040161060e90611495565b60405180910390fd5b6000803373ffffffffffffffffffffffffffffffffffffffff1673ffffffffffffffffffffffffffffffffffffffff1681526020019081526020016000206002015481111561066557600080fd5b3373ffffffffffffffffffffffffffffffffffffffff166108fc349081150290604051600060405180830381858888f193505050501580156106ab573d6000803e3d6000fd5b50346000803373ffffffffffffffffffffffffffffffffffffffff1673ffffffffffffffffffffffffffffffffffffffff16815260200190815260200160002060020160008282546106fd9190611815565b9250508190555050565b60011515600160003373ffffffffffffffffffffffffffffffffffffffff1673ffffffffffffffffffffffffffffffffffffffff16815260200190815260200160002060000160009054906101000a900460ff1615151461079d576040517f08c379a000000000000000000000000000000000000000000000000000000000815260040161079490611495565b60405180910390fd5b806000803373ffffffffffffffffffffffffffffffffffffffff1673ffffffffffffffffffffffffffffffffffffffff168152602001908152602001600020600001836040516107ed91906117cf565b9081526020016040518091039020819055505050565b60606001151583151514801561081d575060001515821515145b1561094057604051806040016040528060011515815260200160001515815250600260008201518160000160006101000a81548160ff02191690831515021790555060208201518160000160016101000a81548160ff0219169083151502179055509050506002600160003373ffffffffffffffffffffffffffffffffffffffff1673ffffffffffffffffffffffffffffffffffffffff1681526020019081526020016000206000820160009054906101000a900460ff168160000160006101000a81548160ff0219169083151502179055506000820160019054906101000a900460ff168160000160016101000a81548160ff0219169083151502179055509050506040518060600160405280603d8152602001611964603d91399050610bef565b60001515831515148015610958575060011515821515145b15610a7b57604051806040016040528060001515815260200160011515815250600360008201518160000160006101000a81548160ff02191690831515021790555060208201518160000160016101000a81548160ff0219169083151502179055509050506003600160003373ffffffffffffffffffffffffffffffffffffffff1673ffffffffffffffffffffffffffffffffffffffff1681526020019081526020016000206000820160009054906101000a900460ff168160000160006101000a81548160ff0219169083151502179055506000820160019054906101000a900460ff168160000160016101000a81548160ff0219169083151502179055509050506040518060600160405280603281526020016118ea603291399050610bef565b60001515831515148015610a93575060001515821515145b15610ad5576040518060400160405280601681526020017f4f6f70732c20706c656173652074727920616761696e000000000000000000008152509050610bef565b604051806040016040528060011515815260200160011515815250600460008201518160000160006101000a81548160ff02191690831515021790555060208201518160000160016101000a81548160ff0219169083151502179055509050506004600160003373ffffffffffffffffffffffffffffffffffffffff1673ffffffffffffffffffffffffffffffffffffffff1681526020019081526020016000206000820160009054906101000a900460ff168160000160006101000a81548160ff0219169083151502179055506000820160019054906101000a900460ff168160000160016101000a81548160ff02191690831515021790555090505060405180608001604052806048815260200161191c6048913990505b92915050565b60008060008473ffffffffffffffffffffffffffffffffffffffff1673ffffffffffffffffffffffffffffffffffffffff16815260200190815260200160002060000182604051610c4691906117cf565b908152602001604051809103902054905092915050565b60016020528060005260406000206000915090508060000160009054906101000a900460ff16908060000160019054906101000a900460ff16905082565b60001515600160003373ffffffffffffffffffffffffffffffffffffffff1673ffffffffffffffffffffffffffffffffffffffff16815260200190815260200160002060000160009054906101000a900460ff161515148015610d51575060011515600160003373ffffffffffffffffffffffffffffffffffffffff1673ffffffffffffffffffffffffffffffffffffffff16815260200190815260200160002060000160019054906101000a900460ff161515145b610d90576040517f08c379a0000000000000000000000000000000000000000000000000000000008152600401610d8790611495565b60405180910390fd5b6000808373ffffffffffffffffffffffffffffffffffffffff1673ffffffffffffffffffffffffffffffffffffffff16815260200190815260200160002060000181604051610ddf91906117cf565b9081526020016040518091039020543414610e2f576040517f08c379a0000000000000000000000000000000000000000000000000000000008152600401610e2690611895565b60405180910390fd5b346000808473ffffffffffffffffffffffffffffffffffffffff1673ffffffffffffffffffffffffffffffffffffffff1681526020019081526020016000206002016000828254610e8091906118b5565b925050819055505050565b6000604051905090565b600080fd5b600080fd5b600080fd5b600080fd5b6000601f19601f8301169050919050565b7f4e487b7100000000000000000000000000000000000000000000000000000000600052604160045260246000fd5b610ef282610ea9565b810181811067ffffffffffffffff82111715610f1157610f10610eba565b5b80604052505050565b6000610f24610e8b565b9050610f308282610ee9565b919050565b600067ffffffffffffffff821115610f5057610f4f610eba565b5b610f5982610ea9565b9050602081019050919050565b82818337600083830152505050565b6000610f88610f8384610f35565b610f1a565b905082815260208101848484011115610fa457610fa3610ea4565b5b610faf848285610f66565b509392505050565b600082601f830112610fcc57610fcb610e9f565b5b8135610fdc848260208601610f75565b91505092915050565b6000819050919050565b610ff881610fe5565b811461100357600080fd5b50565b60008135905061101581610fef565b92915050565b60008060006060848603121561103457611033610e95565b5b600084013567ffffffffffffffff81111561105257611051610e9a565b5b61105e86828701610fb7565b935050602084013567ffffffffffffffff81111561107f5761107e610e9a565b5b61108b86828701610fb7565b925050604061109c86828701611006565b9150509250925092565b6000602082840312156110bc576110bb610e95565b5b60006110ca84828501611006565b91505092915050565b600080604083850312156110ea576110e9610e95565b5b600083013567ffffffffffffffff81111561110857611107610e9a565b5b61111485828601610fb7565b925050602061112585828601611006565b9150509250929050565b60008115159050919050565b6111448161112f565b811461114f57600080fd5b50565b6000813590506111618161113b565b92915050565b6000806040838503121561117e5761117d610e95565b5b600061118c85828601611152565b925050602061119d85828601611152565b9150509250929050565b600081519050919050565b600082825260208201905092915050565b60005b838110156111e15780820151818401526020810190506111c6565b60008484015250505050565b60006111f8826111a7565b61120281856111b2565b93506112128185602086016111c3565b61121b81610ea9565b840191505092915050565b6000602082019050818103600083015261124081846111ed565b905092915050565b600073ffffffffffffffffffffffffffffffffffffffff82169050919050565b600061127382611248565b9050919050565b61128381611268565b811461128e57600080fd5b50565b6000813590506112a08161127a565b92915050565b600080604083850312156112bd576112bc610e95565b5b60006112cb85828601611291565b925050602083013567ffffffffffffffff8111156112ec576112eb610e9a565b5b6112f885828601610fb7565b9150509250929050565b61130b81610fe5565b82525050565b60006020820190506113266000830184611302565b92915050565b60006020828403121561134257611341610e95565b5b600061135084828501611291565b91505092915050565b6113628161112f565b82525050565b600060408201905061137d6000830185611359565b61138a6020830184611359565b9392505050565b7f4f6e6c792075736572732063616e2063616c6c20746869732066756e6374696f60008201527f6e00000000000000000000000000000000000000000000000000000000000000602082015250565b60006113ed6021836111b2565b91506113f882611391565b604082019050919050565b6000602082019050818103600083015261141c816113e0565b9050919050565b7f596f7520617265206e6f7420617574686f72697a656420746f2063616c6c207460008201527f6869732066756e6374696f6e0000000000000000000000000000000000000000602082015250565b600061147f602c836111b2565b915061148a82611423565b604082019050919050565b600060208201905081810360008301526114ae81611472565b9050919050565b7f4e487b7100000000000000000000000000000000000000000000000000000000600052602260045260246000fd5b600060028204905060018216806114fc57607f821691505b60208210810361150f5761150e6114b5565b5b50919050565b60008190508160005260206000209050919050565b60006020601f8301049050919050565b600082821b905092915050565b6000600883026115777fffffffffffffffffffffffffffffffffffffffffffffffffffffffffffffffff8261153a565b611581868361153a565b95508019841693508086168417925050509392505050565b6000819050919050565b60006115be6115b96115b484610fe5565b611599565b610fe5565b9050919050565b6000819050919050565b6115d8836115a3565b6115ec6115e4826115c5565b848454611547565b825550505050565b600090565b6116016115f4565b61160c8184846115cf565b505050565b5b81811015611630576116256000826115f9565b600181019050611612565b5050565b601f8211156116755761164681611515565b61164f8461152a565b8101602085101561165e578190505b61167261166a8561152a565b830182611611565b50505b505050565b600082821c905092915050565b60006116986000198460080261167a565b1980831691505092915050565b60006116b18383611687565b9150826002028217905092915050565b6116ca826111a7565b67ffffffffffffffff8111156116e3576116e2610eba565b5b6116ed82546114e4565b6116f8828285611634565b600060209050601f83116001811461172b5760008415611719578287015190505b61172385826116a5565b86555061178b565b601f19841661173986611515565b60005b828110156117615784890151825560018201915060208501945060208101905061173c565b8683101561177e578489015161177a601f891682611687565b8355505b6001600288020188555050505b505050505050565b600081905092915050565b60006117a9826111a7565b6117b38185611793565b93506117c38185602086016111c3565b80840191505092915050565b60006117db828461179e565b915081905092915050565b7f4e487b7100000000000000000000000000000000000000000000000000000000600052601160045260246000fd5b600061182082610fe5565b915061182b83610fe5565b9250828203905081811115611843576118426117e6565b5b92915050565b7f506c656173652073656e642074686520726967687420616d6f756e7400000000600082015250565b600061187f601c836111b2565b915061188a82611849565b602082019050919050565b600060208201905081810360008301526118ae81611872565b9050919050565b60006118c082610fe5565b91506118cb83610fe5565b92508282019050808211156118e3576118e26117e6565b5b9291505056fe436f6e67726174756c6174696f6e732c20796f7520617265206e6f7720726567697374657265642061732061205573657221436f6e67726174756c6174696f6e732c20796f7520617265206e6f7720726567697374657265642061732061205573657220616e64206120427573696e65737320656e7469747921436f6e67726174756c6174696f6e732c20796f7520617265206e6f772072656769737465726564206173206120427573696e65737320656e7469747921a26469706673582212208dfa155146cb40b133f23d4d71c943950f50b0a1bd33c7542a02cfb08ed7f52c64736f6c63430008110033",
  "immutableReferences": {},
  "source": "// SPDX-License-Identifier: MIT\npragma solidity ^0.8.7;\n \ncontract DriveToPayContract {\n    \n    //this struct will help us specify if the user is a business(eg: McDonals) or customer, or in some cases both.\n    struct User {\n        bool business; //if the user is a business\n        bool customer; // if the user is a customer\n    }\n\n    mapping (address=>Business) businessesMap; \n\n    //Business struct containing the services\n    struct Business{\n        mapping(string => uint256)  Services; //stores the service offered by businesses and their prices\n        string  Name; //name of the business\n        uint256 Balance; //amount owed to the business/amount they have raised/earned\n    }\n    //this will map the address of the user's account to their info\n    mapping(address => User) public users;\n\n    User NewBusiness; //struct for new businesses\n    User NewUser;     //struct for new users\n    User NewUserandBusiness; // struct for new users and businesses\n\n    //registering users\n    function RegisterUser(bool business, bool customer) public returns(string memory Confirmation) {\n        \n        //registering just as a business\n        if (business == true && customer == false){\n\n            NewBusiness = User(true, false);\n            users[msg.sender] = NewBusiness;\n            return(\"Congratulations, you are now registered as a Business entity!\");\n\n        //registering just as a customer\n        }else if(business == false && customer == true){\n\n            NewUser = User(false, true);\n            users[msg.sender] = NewUser;\n            //createBuisness();\n            return(\"Congratulations, you are now registered as a User!\");\n        }\n\n        //registering as neither\n        else if(business == false && customer == false){\n            return(\"Oops, please try again\");\n        }\n        //registering as both\n        else{\n            \n            NewUserandBusiness = User(true, true);\n            users[msg.sender] = NewUserandBusiness;\n            return(\"Congratulations, you are now registered as a User and a Business entity!\");\n        }\n \n    }\n\n    //Unregistering as a user and a business\n    function UnRegister() public OnlyUsers {\n        users[msg.sender].business = false;\n        users[msg.sender].customer = false;\n        delete users[msg.sender];\n    }\n\n    //user paying money for services\n    function payment(address BusinessAddress, string memory NameOfService) external payable OnlyCustomers{\n        \n        //checks if the amount send is the right amount for the service requested\n        require(msg.value == businessesMap[BusinessAddress].Services[NameOfService], \"Please send the right amount\");\n\n        //adds the payment to the business's balance, which the business can withdraw whenever they want- until then the amount will be stored in the contract\n        businessesMap[BusinessAddress].Balance += msg.value;\n\n    }\n \n    //finding the price of the service requested\n    function findPrice(address BusinessAddress, string memory NameOfService) public view returns (uint256){\n\n        //returns the price of the service\n        return businessesMap[BusinessAddress].Services[NameOfService];\n\n    }   \n \n    //function only available to business to withdraw their funds\n    function withdraw(uint256 amountRequested) public payable OnlyEntity{ \n        \n        //check if the amount to be withdrawn is less than or equal to the balance that the business has\n        require(amountRequested <= businessesMap[msg.sender].Balance);\n\n        //send the amount to the business's address\n        payable(msg.sender).transfer(msg.value);\n\n        //decrements the amount they can withdraw in the future\n        businessesMap[msg.sender].Balance -= msg.value;\n    }\n\n    //specifying the business\n    function createBusiness(string memory NameOfB, string memory NameOFservice, uint256 price) public OnlyEntity{\n        //creates business's name\n        businessesMap[msg.sender].Name = NameOfB;\n\n        //creates the business's services\n        businessesMap[msg.sender].Services[NameOFservice] = price;\n\n        //sets their balance to 0 starting out\n        businessesMap[msg.sender].Balance = 0; \n    }\n\n    //Adding services to the business catalog\n    function AddService(string memory NameOfService, uint256 price) public OnlyEntity{\n        businessesMap[msg.sender].Services[NameOfService] = price;\n    }\n\n    //Modifiers\n\n    //modifier that checks that the user is both a business and customer\n    modifier OnlyUsers {\n        require(users[msg.sender].business == true || users[msg.sender].customer == true, \"Only users can call this function\");\n        _;\n    }\n\n    //modifier that checks that the user is business\n    modifier OnlyEntity {\n        require(users[msg.sender].business == true, \"You are not authorized to call this function\");\n        _;\n    }\n\n    //modifier that checks that the user is a customer\n    modifier OnlyCustomers {\n        require(users[msg.sender].business == false && users[msg.sender].customer == true, \"You are not authorized to call this function\");\n    _;\n    }\n}\n",
  "sourcePath": "/Users/aryanshsharma/Desktop/Blockchain class/DriveToPayProject/426Project/DrivetoPay-contracts/contracts/DriveToPayContract.sol",
  "compiler": {
    "name": "solc",
    "version": "0.8.17+commit.8df45f5f.Emscripten.clang"
  },
  "schemaVersion": "3.4.10",
  "updatedAt": "2022-11-12T17:33:59.535Z",
  "networkType": "ethereum",
  "devdoc": {
    "kind": "dev",
    "methods": {},
    "version": 1
  },
  "userdoc": {
    "kind": "user",
    "methods": {},
    "version": 1
  }
}